:020000040800F2
:1000000010F000209D010008811A000891170008D7
:10001000551A0008A5080008E51E000800000000A9
:10002000000000000000000000000000E11B0008CC
:10003000D108000800000000911A0008AD1C00085B
:10004000B7010008B7010008B7010008B7010008B0
:10005000B7010008B7010008B7010008B7010008A0
:10006000B7010008B7010008B7010008B701000890
:10007000B7010008B7010008B7010008B701000880
:10008000B7010008B7010008B7010008B701000870
:10009000B7010008B7010008B7010008B701000860
:1000A000B70100089D1D0008B7010008B70100084E
:1000B000B7010008B7010008B7010008B701000840
:1000C000B7010008B7010008B7010008B701000830
:1000D000B7010008B7010008B7010008B701000820
:1000E000B7010008B7010008B7010008B701000810
:1000F000B7010008B7010008B7010008B701000800
:10010000B7010008B7010008B7010008B7010008EF
:10011000B7010008B7010008B7010008B7010008DF
:10012000B7010008B7010008B7010008B7010008CF
:10013000B7010008B7010008B7010008B7010008BF
:10014000B7010008B7010008B7010008B7010008AF
:10015000B7010008B7010008B7010008B70100089F
:10016000B7010008B7010008B7010008B70100088F
:10017000B7010008B7010008B7010008000000003F
:10018000B7010008B7010008DFF80CD000F0F6FA5C
:1001900000480047A95A020810F00020064880478E
:1001A00006480047FEE7FEE7FEE7FEE7FEE7FEE75C
:1001B000FEE7FEE7FEE7FEE7891D0008890100086B
:1001C0002DE9F05F0546002092469B46884606468C
:1001D000814640241BE0284641464746224600F01F
:1001E00089F953465A46C01A914110D31146184610
:1001F000224600F070F92D1A67EB01084F4622469F
:100200000120002100F067F917EB00094E41201E84
:10021000A4F10104DFDC484631462A464346BDE8E6
:10022000F09F00000649074A0868504343F239022C
:10023000104408604008704701490860704700009A
:10024000000000206D4EC64110B5431A934209D2FA
:100250008318881803E010F8011D03F8011D521ED1
:10026000F9D210BD40EA01039B0703D009E008C999
:10027000121F08C0042AFAD203E011F8013B00F86B
:10028000013B521EF9D210BDD2B201E000F8012BA1
:10029000491EFBD270470022F6E710B513460A4606
:1002A00004461946FFF7F0FF204610BD421C10F827
:1002B000011B0029FBD1801A704710B5002200E015
:1002C000521C835C8C5CA34201D1002BF8D1D8B2C4
:1002D000E1B2401A10BD034611F8012B00F8012BC2
:1002E000002AF9D1184670472DE9FE4F81EA030430
:1002F00004F0004421F0004100944FF0000B23F083
:10030000004350EA01045ED052EA03045BD0C3F319
:100310000A54C1F30A552C44A4F2F3340194A0FB0F
:100320000254C1F3130141F48011C3F3130343F4E6
:10033000801301FB024400FB034E840A970A44EA3F
:10034000815447EA8357A4FB076802958D0A05FB91
:1003500007854FEA932C04FB0C542705029D4FEAB6
:10036000065847EA1637B5EB08056EEB070C870E03
:10037000920E47EA811742EA8312A7FB0201B6EB0D
:100380000B0164EB00042B0D43EA0C335E1844EBC5
:100390001C50DA465146E7FB0201C5F313044FEA4D
:1003A0000B3343EA14534FEA0432019C43EA060339
:1003B000A4F10C040294009CCDE900B400F0B9F85B
:1003C00003B0BDE8F08F00200146F9E72DE9F04DBC
:1003D00081EA030404F0004B21F0004514464FF07D
:1003E000000A23F0004150EA050220D054EA01023D
:1003F0001DD0C5F30A570246C5F31303C1F313001A
:10040000C1F30A5640F4801543F48013A7EB0608A5
:10041000101BD64608F2FD3873EB050002D308F135
:10042000010801E092185B41B8F1000F03DA0020E7
:100430000146BDE8F08D00204FF480110646844649
:100440000EE0171B73EB050705D3121B63EB0503C7
:1004500006434CEA010C49084FEA300092185B4110
:1004600050EA0107EDD152EA030012D082EA0400FB
:1004700083EA0501084305D0101BAB4106D20122D7
:10048000002306E000224FF0004302E06FF001027B
:1004900053101AEB06004CEB085110EB0A0041EB2D
:1004A0000B01BDE8F04D00F035B830B50B46014604
:1004B00000202022012409E021FA02F59D4205D303
:1004C00003FA02F5491B04FA02F52844151EA2F1AD
:1004D0000102F1DC30BD202A04DB203A00FA02F1EF
:1004E000002070479140C2F1200320FA03F3194322
:1004F00090407047202A04DB203A21FA02F00021C4
:10050000704721FA02F3D040C2F120029140084323
:100510001946704710B5141E73F1000408DA401C28
:1005200041F1000192185B411A4301D120F0010012
:1005300010BD2DE9F04D92469B4611B1B1FA81F202
:1005400002E0B0FA80F220329046FFF7C4FF044682
:100550000F4640EA0A0041EA0B0153465A46084357
:1005600013D0114653EA010019D0C8F14002504699
:10057000FFF7C0FF05460E46504659464246FFF774
:10058000AAFF084305D0012004E020463946BDE813
:10059000F08D0020054346EAE0762C4337430A9865
:1005A0006305E40AA0EB08000022FD0A44EA475470
:1005B0000A3002D500200146E9E70105101969411A
:1005C000DDE9084500196941BDE8F04DA2E72DE9D4
:1005D000FE4F804681EA0300C00F0C46009021F0D8
:1005E000004123F00045B8EB0200A94105D2404686
:1005F000214690461C460B46024623F0004010431D
:1006000047D0270DC7F30A00C3F30A510290401ADE
:10061000019040286BDAC3F3130040F4801B00986C
:10062000924620B10023D2EB030A63EB0B0B019837
:100630005946C0F140025046FFF74DFF06460D46B1
:1006400050465946019A00F0B1F810EB080061419C
:10065000002487EA115284EAE7731A4340D0009AD3
:1006600062B3019A012A4FEA075215DC001B61EBC5
:1006700002014FF0004202EA0752CDE90042001C9D
:1006800041F5801132462B46FFF753FF03B0BDE81A
:10069000F08F40462146F9E7001B61EB0201001C88
:1006A00041F5801300185B412018A2F5001747EBB5
:1006B000030140EAD570B6196D4111E06D084FEAAB
:1006C000360645EAC0754FEA0752001B61EB02018E
:1006D000001C41F5801149084FEA300000195141D2
:1006E00032462B4603B0BDE8F04FFFF713BF00982A
:1006F000012240000023D0EB020263EBE07300987C
:1007000021464FEAE074B8EB000061EB0401E9E731
:1007100083F000435BE781F0004158E7C1F30A52E0
:10072000C1F3130140F2FF3341F480119A4202DA1F
:1007300000200146704740F233439A42A2F233420E
:1007400002DC5242FFF7D6BEFFF7C5BE30B5041E2D
:1007500071F1000404DB4FF00044404264EB0101FE
:10076000141E73F1000405DB1C464FF00043524297
:1007700063EB0403994208BF904230BD1CB50948A1
:100780000090094801900546009C06E0E06840F0B2
:10079000010394E8070098471034AC42F6D3FFF702
:1007A000F7FC0000D4A20408F4A20408202A06DB07
:1007B000CB17203A41FA02F043EAE07306E041FA2F
:1007C00002F3D040C2F1200291400843194670471D
:1007D00040F25000C2F20000C068004740F25000F2
:1007E000C2F200008068004740F25003C2F20003EA
:1007F0005B69002B08BF7047184700002DE9F047E0
:1008000040F2344A40F25007C2F2000A4FF6FF7439
:100810000020C2F2000740F22008CAE9000438684C
:10082000C2F20008CAF808808047F86ABAF8009057
:10083000CAF80040804748B300260AE0BAF8000032
:10084000B2B200212346A847F86A013680478642A3
:100850001CD2B86A80473D6A0446002DEED1002CB8
:10086000F2D07B69002BEFD0002508E0BAF8002019
:10087000A8B2B1B298477B690135AC42E4D0002BF5
:10088000F4D100230135AC42F9D1DDE708F10801CC
:100890000020CAF80090CAF80810BDE8F0870000F0
:1008A000002070474EF62450CEF20000416840F21E
:1008B000A802C2F200021160816851604169916032
:1008C0000169D1600068106100BE00BFFEE7000052
:1008D0007047000072B600BFFEE7000040F2FC4324
:1008E000C2F200035A7A002A1CBF0120704780B56B
:1008F00093F809C08646002003F80C005A7A03EBEF
:100900008202C2F804E05A7A1A44107293F809C0BD
:100910000CF101025A720CF130020A7042F63A727E
:10092000A1F80120C87080BDB3F5804F03461DD1EA
:10093000B0B553F822C00020CCF6F0700CEA000EDF
:1009400091E83100D1F818C040EA0E0040EA0410E6
:10095000C96840EA052040EA0C0040EA0141BDE8D0
:10096000B040002043F82210704700BF6FF0704184
:10097000002043F8221070472DE9F04F83B00B6838
:10098000024650F8230001F1240B20F0010042F848
:100990002300D1E902C0D1E900E301908869D1E9DF
:1009A000049A0290C86BD1E9077600909BE8300862
:1009B000D1F8308052F82E008021CFF6F071084037
:1009C000BCF1080F08BF43F040030199194341EA05
:1009D000090141EA0A01394331432143294341EAEC
:1009E0000B01029B41EA08011943009B194308438C
:1009F00040EA0C01002042F82E1003B0BDE8F08F51
:100A000070B5D1E900C3D1E902E44CEA031343EA2B
:100A10000E23D1E9045643EA04430024CFF6F074D0
:100A2000896904EB05552B43FE36194341EA0661FB
:100A300000EB82020020516070BD0000B0B504469A
:100A400000F0ECF8054640F20C00C2F2000000781D
:100A5000611C18BF044400BF00F0E0F8401BA04236
:100A6000FAD3B0BD2DE9F04F83B000F1200200F1C0
:100A70003E4741F60045009207F1FF77C4F20205B8
:100A800008224FEAB726A84208BF072200254FF0E8
:100A900000084FF00009072E38BF4FEAB722019235
:100AA0000AE000BF09F1010908F10208B9F1100FCD
:100AB00005F1040500F0A2800F68012202FA09FE88
:100AC00017EA0E0AEED0D1F804C003220CF0030797
:100AD0007E1E02FA08F4012E6FEA040B12D8846815
:100AE000CE6804EA0B0406FA08F6344384604468CE
:100AF00024EA0E06CCF3001404FA09F426434660F7
:100B000004E000BF032F01D103271EE0C6688C68F4
:100B100006EA0B0604FA08F42643022FC66014D135
:100B20006FF00302009E02EA590756F807C005F06D
:100B30001C040F220B69A2402CEA0202A3401A43B4
:100B4000F251D1F804C00CF00307026807FA08F369
:100B500002EA0B021A431CF4403F0260A2D00022BA
:100B600043F644030292C4F202031A6843F60044B7
:100B700042F480421A601A68C4F2010402F480420E
:100B80000292029A29F003024FF6084C2244CFF653
:100B9000FF7C52F80C3005F00C070F26BE40B34323
:100BA000019E06FA07F73B4342F80C30A2684B68F7
:100BB00042EA0A0743F60C4CDE0258BF22EA0A0753
:100BC000A760C4F2010CDCF800209E0242EA0A078A
:100BD00058BF22EA0A07CCF8007062689E0342EA16
:100BE0000A0758BF22EA0A0767602268DB0342EA65
:100BF0000A0758BF22EA0A07276053E703B0BDE897
:100C0000F08F00000069084018BF01207047000005
:100C1000002A08BF09048161704700004EF6B41035
:100C2000C2F200000068704740F20C004EF6B411AA
:100C3000C2F20000C2F2000100780A6810440860A5
:100C40007047000080B543F60040C4F2020001681E
:100C500041F400710160016841F480610160016844
:100C600041F480710160032000F0BEF80F2000F015
:100C700005F800F059F8002080BD0000B0B586B03E
:100C8000002543F644010195C4F202010A680446B6
:100C900042F001020A60096801A801F00101019116
:100CA0000199694600F062F900F080F94DF6836120
:100CB0004000C4F21B31A0FB01014FF0FF3000EBFC
:100CC000914142F634400022C2F20000C4F2010217
:100CD00040F2E733C0E90021C0E9025305618561B4
:100CE00000F016FC10B106B0B0BD00BF42F63440B3
:100CF000C2F2000000F03CFC0028F4D1192000F002
:100D000035F80F2C0CD819202146002200F040F8AD
:100D100040F210010020C2F200010C6006B0B0BD2C
:100D2000012006B0B0BD000082B0002043F64001B3
:100D30000190C4F202014A6842F480424A604A6863
:100D400002F480420192019A00900868002240F06B
:100D50008050086008680F2100F0805000900098D3
:100D60006FF0010002B000F013B80000002848BF87
:100D7000704700F01F01012202FA01F11C2202EA71
:100D8000D0004EF20012CEF20002815070470000F7
:100D900010B54EF60C5CCEF2000CDCF80030C3F35C
:100DA000022E8EF00704042C28BF0424BEF1030396
:100DB0004FF0FF3E0EFA04F438BF0023A1439940E0
:100DC0000EFA03F39A43114300F00F0200F160435F
:100DD0000901043A03F564436244002848BF02F164
:100DE0000C03197010BD00004EF60C51CEF200013C
:100DF0000A684FF6FF031A4060F30A2242F080604F
:100E000040F0FD7008607047002804BF0120704763
:100E10002DE9F04143F60808C4F202080446D8F868
:100E2000F8030D4600F00700814207D988F8F8530F
:100E3000D8F8F80300F00700A84277D120688107AE
:100E400017D5410705D5D8F8001041F4E051C8F88E
:100E50000010010705D5D8F8001041F46041C8F82A
:100E60000010D8F80010A26821F0F0011143C8F872
:100E70000010C00740D1D8F8F80300F00700854201
:100E800007D288F8F853D8F8F80300F00700A84212
:100E90004CD12068410707D5D8F80010E26821F44A
:100EA000E0511143C8F80010000708D5D8F8000039
:100EB000216920F4604040EAC100C8F8000000F059
:100EC00089F8D8F800104DF61C32C1F30311C0F6B2
:100ED0000202515C40F23C0220FA01F140F21000A3
:100EE000C2F200000068C2F200021160FFF7C6FE05
:100EF0000020BDE8F08100BF6068811E022907D292
:100F000058F8081C89015CBF0120BDE8F08111E0A0
:100F1000012807D158F8081C89035CBF0120BDE8EF
:100F2000F08107E058F8081C890703D40120BDE8C8
:100F3000F08100BFD8F8001021F003010843C8F881
:100F40000000FFF76BFE064641F28837D8F8000034
:100F5000616800F00C00B0EB810F8CD0FFF75EFEF3
:100F6000801BB842F2D90320BDE8F0810F22026055
:100F700043F60802C4F20202136803F0030343605D
:100F8000136803F0F0038360136803F4E053C36055
:100F9000D2F800C04FF4E05303EADC030361D2F857
:100FA000F80300F0070008607047000040F23C00C2
:100FB00043F60801C2F20000C4F2020100680968A9
:100FC0004DF62C32C1F34231C0F60202515CC840EA
:100FD0007047000010B543F60404C4F202046168CF
:100FE000C1F3810142F20040C0F2F400DFE801F0F9
:100FF00002040A0210BD00BF41F20020C0F27A00D4
:1010000010BD00BF216801F03F022168236849023A
:10101000C3F3881106D4A1FB00010023FFF7D0F829
:1010200007E000BF41F20020C0F27A004843B0FB65
:10103000F2F021680222C1F3014102EB4101B0FB51
:10104000F1F010BD002804BF012070472DE9F041E8
:1010500082B00446007843F60006C007C4F20206D8
:101060000CD0B06800F00C00042840F0818030689B
:10107000800303D56068002800F06881207880072D
:101080001BD5B06810F00C0F09D0B06800F00C0050
:10109000082840F087807068400200F18380306843
:1010A000800703D5E068012840F05081306821694D
:1010B00020F0F80040EAC10030602078000713D427
:1010C000207840072AD4A569002D00F03A81B06845
:1010D00000F00C00082840F0A580012D40F00E81A2
:1010E000012002B0BDE8F0816069002800F0828034
:1010F0000020C4F247200121C0F8801EFFF78EFDBA
:10110000054600BF706F8007DAD4FFF787FD401BEC
:101110000228F7D9032002B0BDE8F081306C5FEA05
:10112000C0080AD400200190306C40F08050306438
:10113000306C00F080500190019847F20007C4F233
:1011400000073868C00547D4386840F480703860BC
:10115000FFF764FD054600BF3868C0053CD4FFF7C3
:101160005DFD401B0228F7D9032002B0BDE8F081E5
:10117000B06800F00C00082803D1706840023FF509
:1011800076AF61683068B1F5803F07D0B1F5A02F28
:1011900040F09A8040F480203060306840F4803025
:1011A00030609AE0E068002840F20000C4F2472076
:1011B0005CD001210160FFF731FD054630688007F2
:1011C0003FF574AFFFF72AFD401B0228F6D9032034
:1011D00002B0BDE8F08100BFA168306F012905D0E1
:1011E000052955D140F004003067306F40F0010010
:1011F000306756E00020C4F247200021C0F8801E6E
:10120000FFF70CFD054600BF706F80077FF558AFF4
:10121000FFF704FD401B0228F6D9032002B0BDE809
:10122000F08100BF0027C4F2472700203866FFF78F
:10123000F5FC022D05460DD13068800140F18A8011
:10124000FFF7ECFC401B02284FF00300F4D902B07A
:10125000BDE8F0813068800173D5FFF7DFFC401BEB
:1012600002284FF00300F5D9F1E700BF002101602B
:10127000FFF7D4FC054600BF306880077FF51DAF3F
:10128000FFF7CCFC401B02284FF00300F4D9DEE747
:1012900020F001003067306F002920F00400306733
:1012A0007AD0FFF7BBFC054641F28837306F8007E4
:1012B00000F18480FFF7B2FC401BB842F6D903204E
:1012C00002B0BDE8F08100BF20F4803030603068AB
:1012D000002920F4802030607AD0FFF79FFC05467B
:1012E000306880033FF5CAAEFFF798FC401B6428C6
:1012F000F6D9032002B0BDE8F08100BF7068E16953
:1013000000F480028A4221D1216A00F03F028A4221
:101310001CD147F6C071626A0140B1EB821F15D142
:10132000A16A4FF6FF73C903994300F44032A1F557
:1013300080318A420AD1E16A00F07060B0EB016F3F
:1013400004D1002002B0BDE8F08100BF012002B04E
:10135000BDE8F08104F11C052FCD084340EA82105E
:10136000D9034FF6FF729143A1F5803140EA056041
:101370000843706001203866FFF750FC044600BF48
:1013800030688001DDD4FFF749FC001B02284FF0D4
:101390000300F5D95BE700BFFFF740FC054641F2CB
:1013A000883700BF306F800708D5FFF737FC401B38
:1013B000B8424FF00300F5D949E700BFB8F1000F7C
:1013C0003FF581AE306C20F0805030647BE600BF8A
:1013D000FFF724FC054600BF306880037FF54EAE62
:1013E000FFF71CFC401B64284FF00300F4D92EE7E4
:1013F000002804BF0120704770B5044690F84900EA
:1014000015460E4628B9002084F84800204600F012
:101410001DF8206804F10801FFF7AEFA2068A26801
:101420003146FFF7EDFAD4E90102236B2946FFF7B5
:101430007BFA2068A16850F8212042F0010240F8B0
:101440002120012084F84900002070BD2DE9F043DF
:1014500087B040F24040C2F2000001780026002927
:101460000696CDE904660396029649D101210170E2
:1014700043F638000196C4F20200016840F60044C9
:1014800041F0010101600068C4F2020400F00100B3
:10149000019001984FF23F0002AD02904FF0020818
:1014A0004FF003090C2704F500602946CDE90386B7
:1014B000CDF814900697FFF7D5FA41F23F40CDE9F9
:1014C000020804F540602946CDE904690697FFF754
:1014D000C9FA4FF68370CDE9020804F58060294609
:1014E000CDE904690697FFF7BDFA4FF63370CDE9F1
:1014F000020820462946CDE904690697FFF7B2FAAB
:1015000007B0BDE8F083000070470000704700009E
:10151000002804BF0120704710B5044690F83D0034
:1015200028B9002084F83C00204600F01FF8022073
:1015300084F83D002068211D00F036FC012084F86D
:10154000460084F83E0084F83F0084F8400084F8A8
:10155000410084F8420084F8430084F8440084F891
:10156000450084F83D00002010BD000070470000D9
:1015700090F83D1001291CBF01207047022180F81E
:101580003D10006841F2FF72C168C4F2000290424F
:1015900041F00101C1600DDC40F2FF71C4F20001B5
:1015A000884215DCB0F1804F2AD040F20041C4F2ED
:1015B000000123E040F2FF31C4F20101884213DC54
:1015C00041F60001C4F20001884219D0002113E065
:1015D00040F60001C4F20001884211D040F60041FB
:1015E000C4F200010AE000BF44F20001C4F20101AC
:1015F000884205D040F20041C4F20101884206D180
:10160000816801F00701062904BF002070470168C6
:1016100041F00101016000207047000070470000A8
:1016200070B504460068C5680669B10716D515F09F
:10163000020113D06FF0020101610121217780695D
:10164000800703D02046FFF7E9FF05E0204600F0C1
:101650008FF8204600F08EF800202077700719D50B
:1016600015F0040016D020686FF00401016102211A
:101670002177806910F4407F04D02046FFF7CEFF29
:1016800006E000BF204600F073F8204600F072F834
:1016900000202077300717D515F0080014D02068F7
:1016A0006FF00801016104212177C069800703D030
:1016B0002046FFF7B3FF05E0204600F059F820462A
:1016C00000F058F800202077F00619D515F010002A
:1016D00016D020686FF01001016108212177C069E0
:1016E00010F4407F04D02046FFF798FF06E000BFCB
:1016F000204600F03DF8204600F03CF8002020771E
:10170000F00718BF15F0010002D1300609D412E02D
:1017100020686FF001010161204600F02DF83006CD
:1017200009D515F0800006D020686FF080010161B6
:101730002046FFF7E9FE700609D515F0400006D0F7
:1017400020686FF040010161204600F01FF8B006EC
:1017500058BF70BD15F0200008D021686FF020023E
:1017600020460A61BDE87040FFF7D0BE70BD0000A2
:10177000704700007047000000680021C4F20101BA
:10178000884218BF7047FFF74FBA0000704700004B
:101790004EF62450CEF20000416840F2A802C2F298
:1017A0000002116081685160416991600169D160F6
:1017B0000068106100BE00BFFEE70000FFF73EB901
:1017C0007047000070B5C0B24FF0D842108069B1C8
:1017D00042F2000EC6F6004E042901F0030C07D2B7
:1017E0000021BCF1000F1FD170BD00BF002070BDF3
:1017F00001F0FC00002100BF0431BEF80030BEF84B
:101800000050BEF80040BEF80020CEB28642F3D1B0
:10181000E8B240EA03202102C1EA0040D1B2084404
:101820000102BCF1000FDFD0BEF80000BCF1010FD7
:10183000C0B240EA0100D7D0BEF80010BCF1020FE0
:10184000C9B241EA002008BF70BDBEF80010C9B29D
:1018500041EA002070BD000042F20001C6F60041DE
:10186000088070474FF0D8410880704710B540F2AB
:10187000BC04C2F200044FF6E400611CC0F6020092
:10188000FFF72CF8207010BD80B588B00B4802AF70
:1018900001900AA000F1040E9EE80E50806987E8CE
:1018A0000E50079001A8002124F0A2F940F2F44163
:1018B000C2F20001086008B080BD00BFAE8304081A
:1018C000051C0008000000000000000000040000EB
:1018D00000000000000000002DE9F04F87B042F644
:1018E000943040F20418C2F2000004210024CAF22D
:1018F00000084FF020491025C0E902144FF4805A27
:101900000F274FF0FF0B112669460022C0E900980F
:10191000C0E90445C0E906444464C0E90844C0E99C
:101920000AA4C0E90C448463CDE90077CDE902B78D
:101930000495CDE90564FFF75BFD002818BFFEF7AD
:10194000C9FF42F6E430C2F200000621C0E90214E9
:1019500069460022C0E90098C0E90445C0E9064490
:101960004464C0E90844C0E90AA4C0E90C448463A3
:10197000CDE90077CDE902B7CDE904560694FFF72B
:1019800037FD002818BFFEF7A5FF07B0BDE8F08FB0
:10199000F0B587B0002543F630000695CDE9045533
:1019A000CDE902550195C4F20200016841F20044FC
:1019B00041F0040101600168C4F2020401F0040175
:1019C0000191019901950168012241F02001016016
:1019D00001684FF4806601F02001019101990195A1
:1019E0000168012741F080010160016801F0800178
:1019F000019101990195016841F040010160016880
:101A000001F04001019101990195016841F0100137
:101A10000160016801F010010191019901950168CF
:101A200041F00801016000684FF4806100F0080097
:101A3000019001982046FFF7EBF802A92046CDE976
:101A40000267CDE90455FFF70DF807B0F0BD0000BF
:101A5000704700004EF62450CEF20000416840F27C
:101A6000A802C2F200021160816851604169916070
:101A70000169D1600068106100BE00BFFEE7000090
:101A8000FEE7000000000000000000000000000071
:101A9000EFF30980BFF36F8F154B1A681EF0100F1C
:101AA00008BF20ED108A20E9F04F10602DE90900F1
:101AB0004FF0500080F31188BFF34F8FBFF36F8F4B
:101AC0002AF068FB4FF0000080F31188BDE80900A0
:101AD00019680868B0E8F04F1EF0100F08BFB0ECAE
:101AE000108A80F30988BFF36F8F704700BF00BF73
:101AF000C400002010B540F23804C2F200040120F6
:101B00002070FEF7CDFE08B1207810BD207800F0DF
:101B1000FE002070207810BD40F23800C2F20000B4
:101B20000078C0071CBF03207047032914D8002089
:101B3000DFE801F01302080E4FF48050106000201F
:101B4000704700BF4FF4007010800020704700BF46
:101B50000120106000207047042070474FF0000CF7
:101B6000BCEB432F14D04FF6FC70C6F2FF3000EBF5
:101B70004220ACEB4322043910F8043F043201F850
:101B8000043F43784B7083788B70C378CB70F3D16C
:101B90000020704740F23800C2F200000078704721
:101BA0004FF0000CBCEB432F14D04FF6FC70C6F284
:101BB000FF3000EB4220ACEB4322043911F8043F24
:101BC000043200F8043F4B7843708B788370CB78F5
:101BD000C370F3D100207047000000000000000037
:101BE000074B19680868B0E8F04F80F30988BFF325
:101BF0006F8F4FF0000080F31188704700BF00BF67
:101C0000C4000020FFF70AF80446FFF707F840F287
:101C1000A0070546C2F200072020386019F0B6FB85
:101C20002120386005F01EF9002818BFFEF752FE8B
:101C30002220386029F03AFC002818BFFEF74AFE3F
:101C40002320386028F0C0FB0028786008BFFEF72A
:101C500041FE24203860552005F044F925204FF03E
:101C60002608386006E000BF35460120C7F800802E
:101C700023F0B0FFFEF7D2FF0646001B052802D373
:101C800022F0EAFE344678680028EED0711BC8299D
:101C9000EBD328F083FB796883B20A8E9342E3D0BA
:101CA0000886084628F00EFEDEE7000080B54FF0FB
:101CB000500080F31188BFF36F8FBFF34F8F2AF06E
:101CC000F3FC30B14EF60450CEF200004FF08051DC
:101CD0000160002080F3118880BD000070B592B0D3
:101CE00006AC20463021FEF7D6FA002543F6400028
:101CF0000595CDE90355CDE901550095C4F20200E3
:101D00000168022641F080510160006800F08050B7
:101D10000090009847F200000095C4F200000168AE
:101D200041F480410160006800F480400090009818
:101D3000012006904FF4803007904FF480000D9002
:101D400008200E904FF4A870CDE90F0607201190DF
:101D500020460C96FFF776F910B172B6FEE700BF89
:101D60000F20CDE901064FF4A05004904FF48050AD
:101D7000059001A805210395FFF746F810B172B64A
:101D8000FEE700BF12B070BD4EF68850CEF20000E4
:101D9000016841F4700101607047000042F6344070
:101DA000C2F20000FFF73CBCB0B540F6FF3E05684C
:101DB000C4F2000E40F2004C7045C4F2010C25DC68
:101DC000B0F1804F2FD040F20043C4F2000398429C
:101DD00029D040F60003C4F20003984223D041F614
:101DE000FF73C4F20003984228DC70453ADCB0F17E
:101DF000804F5BD040F20043C4F20003984255D0BC
:101E000040F60003C4F200034EE000BF40F600437A
:101E1000C4F20003984206D0604504D00023C4F207
:101E200001039842DBD14B6825F0700243EA0205BA
:101E300041F6FF73C4F200039842D6DD43F6FF7308
:101E4000C4F2010398421FDC42F20003C4F2000313
:101E500098422BD00023C4F20103984226D060455B
:101E600024D028E040F60043C4F2000398421DD07D
:101E700041F60003C4F20003984217D041F6004334
:101E8000C4F2000310E000BF44F20003C4F20103F7
:101E900098420BD044F60003C4F20103984205D0E7
:101EA00044F20043C4F20103984204D1CB6825F404
:101EB000407243EA02050A688C684B69C46240F4C8
:101EC00080648262644504BF09690163026825F089
:101ED000800142F004021943026001224261016064
:101EE000B0BD00004EF62450CEF20000416840F232
:101EF000A802C2F2000211608168516041699160DC
:101F00000169D1600068106100BE00BFFEE70000FB
:101F1000B0B540F22034C2F200042046442101F062
:101F20005FFE45F2F950C0F600001021002222F0B9
:101F300051FD40F2BC25C2F2000568600120287006
:101F4000204601F017FE0146686829B122F08EFE96
:101F500000202870B0BD00BF22F072FE0020287063
:101F6000B0BD00002DE9F043B1F900E0B2F9047012
:101F7000BE4511DCB1F904C0B2F90060B4450BDB19
:101F8000B1F90250B2F90640A54205DCB1F906806C
:101F9000B2F90230984503DAFF2358B2BDE8F08366
:101FA000B64509DBAB4207DCBC4505DCA04503DCDC
:101FB000002358B2BDE8F0835E1B36B2012EA8EBB9
:101FC00005090BDBA0F800E04580A0F804C0C38041
:101FD000D4884D88B1F80680012300E00023A9EBE6
:101FE00004062E4436B2012E15DB0FFA88F627B20E
:101FF000B74210DA0E888F8805EB090800EBC3059D
:1020000020F833606C80AF80A5F806804D88D488B6
:10201000B1F806800133B2F902602DB2AE42C8BFFA
:10202000354626B20FFA88F4A642B8BF3446661B7E
:1020300036B2012E0E88ACEB0E0C10DBB2F800E0CD
:10204000AEEB06073FB2012F09DB00EBC30720F818
:1020500033607D80A7F804E0FC800E88013391880E
:10206000ACEB0102324412B2012A09DB06EB0C028E
:1020700000EBC30720F8331001337D80BA80FC8069
:1020800058B2BDE8F0830000F0B50346B1F9000096
:10209000B2F90050B1F902C0B2F90260B1F904E03E
:1020A000B2F90470A842B1F90640B2F90610C8BFEF
:1020B0000546B4451D80C8BF6646BE455E80B8BFB4
:1020C00077468C4230B29F80B8BF21460AB20026C4
:1020D000BD424FF00007D8BF01279042D8BF01266C
:1020E00007EA0600D980F0BD2DE9F04381B0B0F9D0
:1020F0000070B1F900309F423EDBB0F90250B1F9F7
:1021000002309D4238DBB0F90460B1F904309E42E0
:1021100032DCB0F90640B1F9060084422CDC7AB317
:102120006B46884608461946ADF80070ADF8025077
:10213000914600F099F8F8B1694640464A46ADF834
:102140000060ADF8025000F08FF8A8B16946404633
:102150004A46ADF80070ADF8024000F085F858B17D
:10216000694640464A46ADF80060ADF8024000F0CE
:102170007BF801B0BDE8F083002001B0BDE8F0833A
:10218000012001B0BDE8F083B0F90020B1F90430BE
:102190009A4213DCB0F90420B1F900309A420DDB09
:1021A000B0F90220B1F906309A4207DCB0F9060016
:1021B000B1F902108842A4BF012070470020704787
:1021C0002DE9F04381B0B0F90460B1F900309E42CE
:1021D00011DBB0F90670B1F902309F420BDBB0F9A8
:1021E0000040B1F904309C4205DCB0F90250B1F96D
:1021F0000600854204DD012001B0BDE8F08300BF88
:10220000FAB16B46884608461946ADF80040ADF86D
:102210000250914600F028F898B9694640464A466F
:10222000ADF80060ADF8025000F01EF848B96946FC
:1022300040464A46ADF80040ADF8027000F014F890
:1022400020B1002001B0BDE8F08300BF69464046E0
:102250004A46ADF80060ADF8027000F005F880F075
:10226000010001B0BDE8F0832DE9F041B1F9003083
:10227000B0F90040A3420DDBB0F904E0734509DC7E
:10228000B1F90210B0F902C0614503DBB0F90650A4
:10229000A94203DD0020BDE8F08100BF012A54DB24
:1022A000AEEB0400013086B200EBD63006B2A5EBEF
:1022B0000C00013087B200EBD73007B24FEA660856
:1022C0007810B8EB670FB8BF70108242B8BF1046E5
:1022D000021917B200EB0C02BB4216B2D8BFB142D2
:1022E00016DD2A1ABB4212B22ADC914228DB0744CF
:1022F0003FB23F1B07EBD7777E1004EB670508441E
:1023000002EB67015B1B401A06FB06F10EE000BF03
:10231000384400B2001B00EBD070421004EB6007A1
:102320000CEB6000DB1B081A02FB02F113FB03F24B
:1023300010FB002200208A4298BF0120BDE8F081F6
:10234000AEEB000424B2A34202DA0120BDE8F08122
:1023500091421BDAB142F8DC201A02B2AEEB020263
:1023600002EBD27200EB62005710181A0CEB6202FB
:10237000891A10FB00F007FB07F211FB0101002096
:10238000914298BF0120BDE8F08100BF271A3EB2FC
:10239000AEEB060606EBD676751007EB660708442B
:1023A00002EB6601DB1B401A05FB05F1BEE70000EE
:1023B00070B5B1F90030B2F90040B1F902C0B2F91C
:1023C0000250B1F904E0B2F90460A342B1F9061079
:1023D000B2F90620B8BF1C46AC450480B8BF6546BC
:1023E000B6454580C8BF764686809142C8BF0A463A
:1023F000C28070BD2DE9F04F91B0044622F0E8FA9A
:1024000040F204290021C2F20009039008914CB166
:10241000E1682046C9F8001022F012FCD9F800004B
:1024200004E000BF0AF0E2F8C9F80000006920F0FB
:1024300059FFD9F80010486918B120F053FFD9F8B6
:102440000010C86920F04EFFD9F80000006A20F0A3
:1024500049FFD9F800100869002800F0DB80B1F8C6
:102460005001002856D000274FF001080DF1240A32
:10247000012004E0B1F85001013787424AD2002818
:10248000F8D0C81990F830010028F3D1002504E0F5
:10249000B1F8500101358542ECD2BD42F8D048195F
:1024A00090F830010028F3D1303101EBC70001EB87
:1024B000C501FFF769FED9F800100028E8D001F146
:1024C000300000EBC70100EBC5025046FFF770FF7C
:1024D000504608F0D9FFD9F80010044601EBC700B8
:1024E000303008F0D1FFD9F80010064601EBC500E6
:1024F000303008F0C9FF3044D9F800108442C7D208
:10250000099A0A9B01EBC70002634363481980F8EC
:102510003081BDE70868027CD20700F0B780C06850
:102520004068002800F0B28001F5AC7001F0C2FBF9
:10253000D9F80010002840F0A9800868C068036836
:1025400082689A4208BF43680846CDE906320AF01D
:1025500067F8D9F800100590B1F850210020002A42
:10256000CDE90F00CDE90D00CDE90B00CDE9090063
:1025700064D00DF1240BABF1080A002707E000BF7F
:10258000D9F800100137B1F85001874256D2C81966
:1025900090F830010028F3D101F5AC7001F0EAFAAF
:1025A0000028EDD004460CE0D9F80000214600F5E3
:1025B000AC7001F089FB20461AF0D0FD002D2C46AE
:1025C000DED0D9F80000214600F5AC7001F0FAFA2F
:1025D000D9F80010054601EBC70000F1300258465B
:1025E0002146FFF7BFFC06460130E7D0012EDBDBBA
:1025F000D04600BFD9F80000214600F5AC7001F0CC
:102600000FFB58F8081F013ED8F804200160426013
:10261000F0D1C9E70020A1F8500148F666310FF269
:102620004447C0F604010FF25843022040F23D1225
:10263000009701F079FB11B0BDE8F08F01F5AC70A7
:1026400001F098FA0DF1140898E86001B0B1044661
:10265000D9F80000414600682A46C06B2346876BC4
:10266000CDE900650294B847D9F80000214600F58D
:10267000AC7001F0A7FA04460028E9D1D9F80000AF
:1026800000F5AC7001F044FAD9F80010B1F850B17F
:102690000020BBF1000FC9F8040000F0CB81BBF1B2
:1026A000010F1DDB01EB0B0090F82F21F2B1BBF104
:1026B000010F15D090F82E21F2B1BBF1030F0FD30B
:1026C00090F82D21002A00F0BF81BBF1030F07D045
:1026D00090F82C01ABF1040B0028E0D10EE000BF14
:1026E0004FF0000B0868426B5AB90EE0ABF1010BDA
:1026F0000868426B2AB908E0ABF1020B0868426B2C
:102700001AB19047D9F800100868C068826922F0B1
:10271000010282610868C068826922F00202826157
:10272000B1F8502191F82800002A40F0040281F805
:10273000282000F07B810DF1240A0024CDF810B090
:1027400014E000BFDDE904B4D9F8000000EBC400D8
:10275000303008F099FED9E900121044C9F804009D
:10276000B1F850010134844280F01481081990F8C6
:1027700030010028F4D15C4505D10868C068826941
:1027800042F0010282610868C068826922F0020298
:1027900082610868C268C66B92683260007C01EB97
:1027A000C402800702F1300522D0084609F038FF44
:1027B000D9F80010A0F1010808460AF047F80138DE
:1027C00007B20FFA88F3504600210022009708F064
:1027D00095FED9F80000C6F804A00068D0E903010E
:1027E0008269890716D4816962F3410115E000BF4F
:1027F0000594B5F800B0B5F80480B5F802A0B5F9B5
:10280000064008460AF022F8844207950CDAEF8861
:102810000FE000BF42F00201554681613046B560CD
:1028200023F0BAFD90E700BFD9F800000AF00EF8D7
:10283000471ED9F80010A8EB0B0009680130CB68DF
:10284000A4EB0A02DB6800B20132B3FBF0F0896945
:102850000FFA82FB5845B8BF8346A9B3B84600209B
:102860005C4609AF0990ADF8280000BF651ED9F895
:102870000000ADF82A500068394682699047BDF8DB
:102880002610BDF92A00411A013109B28B4503DA3D
:102890002CB2002CEADC05E021B2002902DD00F1B7
:1028A000010B10E048F6663148F60C370220C0F6FE
:1028B000040140F2344268A3C0F60407009701F017
:1028C00033FA4FF0000B474607980FFA87FAB0F932
:1028D0000220ABF1010081180690514590B225DD30
:1028E0000024A1B2BAB28A420DF1240A3FF42AAF01
:1028F000079A1188ADF824109188ADF82600D9F810
:102900000000ADF82810ADF82A70C6F804A0C6F88B
:1029100008A00068C06881683160816941F00201E7
:102920008161304623F038FD0CE700BF0BEB020558
:102930000CE000BF304623F02FFD0699284601FA2F
:1029400085F10BFA85F551454746CADC079B0CB269
:102950001A88A245ADF824209A88ADF82600ADF873
:10296000282009AAD9F80000ADF82A107260B260D8
:102970000068BAB2C068B84681683160BCBFADF8C3
:102980002A703C46A1B28A42D4D1816941F0020149
:102990008161CFE791F82820002802F0FB0281F83E
:1029A000282047D00868027CD2071FD0C068406842
:1029B000E0B14FF49874302509E000BF0134B1F85C
:1029C0005001A4F59872824205F108050ED2085D07
:1029D0000028F3D101F5AC7001F052F9D9F80010DC
:1029E0004A1952684B5942600360E7E701F1300031
:1029F0004FF480711BF03AF8D9F80000202100F55F
:102A000098701BF033F8D9F800000021A0F850119D
:102A1000039821F0D7FF0890D9F800000068436AB6
:102A200043B10899D9F80420984703E000F0FB006F
:102A300081F828001AF038F900F070F800F02AF850
:102A400011B0BDE8F08F00BFABF1030B0868426B1B
:102A5000002A7FF456AE58E66765745F6D61785F53
:102A6000726F77007468657265206973206E6F20DD
:102A70006163746976652073637265656E0000003A
:102A80005F6C765F646973705F726566725F7469AC
:102A90006D65720010B540F29C34C2F200042068EB
:102AA000002818BF1AF05AFB20461C211AF0DEFF3E
:102AB000E069002818BF1AF051FB04F11C001C212A
:102AC0001AF0D4FFA06B002818BF1AF047FB04F1DE
:102AD00038001C211AF0CAFF606D002818BF1AF0D8
:102AE0003DFB04F154001C21BDE810401AF0BEBFAC
:102AF00042F69031C2F20001096804E00A7E42F019
:102B000001020A764969002908BF70474A68824273
:102B1000F4D00A688242F5D1F0E7000010B540F227
:102B2000E424C2F200042068002808BF10BD1AF097
:102B300015FB0020206010BD40F21430C2F20000EE
:102B4000042101F04DB8000040F22C30C2F2000028
:102B5000202101F045B800002DE9F04F85B00E9E10
:102B60001D46002B834608BFB6F5807F68D0DDF890
:102B70003C800023019301A8ADF80810CDF80A307D
:102B8000ADF80E20ADF81010ADF8122029463246EF
:102B90004346071D00F1080900F10C0A20F08EFCE5
:102BA000384629463246434620F088FC48462946A6
:102BB0003246434620F082FC504629463246434680
:102BC00020F07CFCBDF90410BDF90870BDF90C6063
:102BD000BDF91040B9423846BDF906C0BDF90A300A
:102BE000B8BF0846A6422546B8BF3546A842B8BF7A
:102BF0000546B942C8BF0F46A642C8BF3446A742E1
:102C0000C8BF3C46A11CBDF90E60BDF912409C45F1
:102C10001A46A5F10200B8BF6246A6422546B8BFD3
:102C20003546AA42B8BF15469C45C8BF6346A64272
:102C3000C8BF3446AF1EA342C8BF1C46A21C03E057
:102C40000139013A00200027ABF80000ABF8027010
:102C5000ABF80410ABF8062005B0BDE8F08F00001B
:102C60002DE9F04F81B042F68C3BC2F2000BBBF86D
:102C700000308BB1924640F2D422C2F2000280466C
:102C80000120D2F80090C8F20000042B03F00302E8
:102C900016D2002337E000BF48F64D5148F6855361
:102CA00098A7C0F60401C0F604030220462200974C
:102CB00001F03AF80026304601B0BDE8F08F00BFC1
:102CC00023F0030709F18006002300BF56F8585C83
:102CD00004338542C4BF013D46F8585C56F82C5C6D
:102CE0008542C4BF013D46F82C5C35688542C4BFAF
:102CF000013D3560F56A8542C4BF013DF5629F42E2
:102D000006F1B006E2D1F2B12C2703FB079757F882
:102D1000286F8642C4BF013E3E60012A13D02C2793
:102D200003FB079757F8546F8642C4BF013E3E60CD
:102D3000022A08D02C2203FB029252F8803F8342E1
:102D4000C4BF581E10608FB200244E4607E000BF7B
:102D5000BBF800000134844206F12C0628D23089E9
:102D6000B842F5D1F0688245F2D17568404617F057
:102D700007FD012804D00028EAD1A845E8D10AE0DF
:102D8000284617F0FDFC0128E2D140462946FDF710
:102D900094FA0028DCD1F069B16A0844B0F57A7F72
:102DA000A8BF4FF47A70B062304601B0BDE8F08F32
:102DB00002280BD3411E0238032801F0030C07D26E
:102DC00001214E46BCF1000F2DD14AE04E4648E0AD
:102DD00021F00301A9F1B00300224E46B56AD3F8F1
:102DE0000441D3F83001AC42B8BF03F1DC06B56A48
:102DF000D3F85C41A842B8BF03F58476B06AD3F833
:102E000088518442B8BF03F59A76B06A043285428D
:102E1000B8BF03F5B076914203F1B003DED1511C87
:102E2000BCF1000F1DD02C2001FB0092B36A906A08
:102E30009842B8BF1646BCF1010F12D0506DB36A6C
:102E40009842B8BF02F12C06BCF1020F09D02C2029
:102E500001FB0090B26AD0F880109142B8BF00F137
:102E60005806706810B1304616F03CFE21F0B0FDF7
:102E70000546304641463A46534616F07BFE88B139
:102E8000F06900210028B1627FF415AF284621F0D7
:102E900099FD012898BF0120F061304601B0BDE8DE
:102EA000F08F00BF48F64D5148F685530AA7C0F68B
:102EB0000401C0F6040302207D22009700F034FFD5
:102EC00030462C211AF0D2FD4FF00040B0620026AF
:102ED000304601B0BDE8F08F496D616765206472CE
:102EE00061772063616E6E6F74206F70656E207401
:102EF000686520696D616765207265736F757263BF
:102F0000650000006C765F696D675F63616368658B
:102F10005F6F70656E3A20746865206361636865F1
:102F20002073697A652069732030000010B584B081
:102F300040F23834C2F200042046142100F050FE62
:102F4000204600F055FEB8B1142104461AF08EFD5B
:102F500048F6D940C0F6010048F6556149F2DD3225
:102F600048F6A143C0F60101C0F60102C0F6010314
:102F70000FC404B010BD00BF48F6E15048F65D0133
:102F8000C0F60400C0F6040148F6F804CDE90010CC
:102F900048F6F15148F62B63C0F60404C0F604016C
:102FA000C0F604030320D022029400F0BDFE00BF4F
:102FB000FEE70000B0B582B00C4605460846102179
:102FC0001AF054FD28680178042911D002290DD087
:102FD000012903D1A98A2180E98A6180426862B10E
:102FE000214602B0BDE8B040104700BFE96800E0EC
:102FF0000A2161604268002AF2D149F2C22105A586
:10300000C0F604010BA30220BD22009500F08CFE47
:1030100002B0B0BD696E6465765F726561645F63BE
:1030200062206973206E6F742072656769737465BE
:10303000726564005F6C765F696E6465765F726569
:10304000616400002DE9F04F8DB00446804634F8ED
:10305000140F20B9B8F81600002800F02B83D8F818
:103060002C90B9F1000F43D04FF4807600274D46E5
:10307000284600216E221DF025FD07442846002128
:103080006D221DF01FFD01B2C90D50FA81F000B292
:103090000012464328461CF05FFF05460028E7D192
:1030A000380440F08D81B0B2B0F5807F40F0888167
:1030B00098F8400000F00F00032840F09681484641
:1030C0001DF052F8054648461CF0CCFFB4F900103C
:1030D0000246032748462B46009705F049F9054666
:1030E000002648461CF0B6FFC10700F0958199E123
:1030F00017F0C6FB0068B8F81410B8F81820037E63
:103100005018A8F81800B8F81600B8F81A10D8F82F
:1031100024700844002FA8F81A0000F0CB8258420F
:1031200007904FF0000900204FF0000A4FF0000B0D
:103130000194039308900690CDF810804FF48076A8
:1031400000243D46CDF83090284600216E221DF027
:10315000B9FC0444284600216D221DF0B3FC00B2E6
:103160007043061228461CF0F7FE05460028EBD1F6
:10317000D8F8180021040B9008BFB6F5807F0FD057
:103180004FF48031604291FBF6F201B20BA80CAB18
:1031900020F094F9BDF82C00BDF82E1001E000BF1E
:1031A000010C02B280EAE230A0EBE2300AB281EA1E
:1031B000E231A1EBE23180B289B288424FF00000E7
:1031C0004FF0000188BF012098BF01214BEA010B9D
:1031D0004AEA000A384610211DF026FE002800F0B9
:1031E000CD803846CDF824A01CF034FF804600F096
:1031F00004000BEA900408F008000BEAD0063846F9
:10320000CDF814B01DF032F8824638461CF0C0FEEE
:10321000834638461CF026FF814638461CF0A4FF42
:10322000BAF1000FD8BFBBF1010F71DBBDF82E1052
:10323000DDF80CE009B200227145A8BF0122079B0E
:10324000224099424FF00001D8BF01213140114383
:10325000069D18BF0C25089918BF39460891B9F189
:10326000000FD8BF00285BDD099A08F0020108EAC8
:10327000020302EA510CBDF82C200694B9F1000FAC
:103280004FF0000412B24FF000010296C8BF0124B3
:103290007245A8BF0121079E1940B2424FF00006B7
:1032A000D8BF012606EA0C06314318BF032508994A
:1032B00018BF3946089104EA0301012902D1724579
:1032C00080F2048100284FF00001C8BF0121BBF14A
:1032D000000F4FF00000C8BF0120BAF1000F4FF0FF
:1032E000000301EA0C01C8BF0123029C01290699D1
:1032F00000EA040001EA03014FF0000924D1079B12
:10330000DDF824A0DDE9048B9A4223DCE4E000BF71
:10331000069DDDF80CE0B9F1000FD8BF0028A3DC52
:10332000BBF1000F4FF000004FF00001C8BF0120BB
:10333000BAF1000FC8BF0121DDF8108021403040F4
:103340004FF0000902E000BFDDF81080DDF824A096
:10335000DDF814B0BDF82E20002312B27245A8BFCC
:103360000123079EB2424FF00002D8BF012219424A
:10337000069508BF10EA020040F0A08038464FF4DE
:1033800080711DF051FD002804BF8AF001005FEA42
:10339000C07000F0AA8038464FF400711DF044FD63
:1033A000002804BF8BF001005FEAC07000F09D8030
:1033B00038461CF0D1FD074600287FF4BFAE94E0EC
:1033C00030B24FF4803292FBF0F0794200220A9240
:1033D00009B202B20AAB204620F070F898F840001B
:1033E00000F00F0003283FF46AAE48461CF03EFF91
:1033F000054648461CF0CCFDB8F9161003460C27CC
:1034000048462A46009704F0B3FF06460025484682
:103410001CF020FEC10705D1002D03DD002541076A
:1034200006D509E0810758BF25EAE575410703D4B1
:10343000002E01DD002603E0000758BF26EAE676ED
:10344000B8F91A10B8F9363001FA86F7B8F9180049
:10345000B8F934205C1A9F42B8BF2646B8F93A3012
:10346000B8BF01FA84F79F42C8BF5E1A00FA85F11F
:10347000131A9142B8BF1D46B8F93820B8BF00FAF8
:1034800083F19142C8BF151A36B22DB2484629467B
:10349000324600F0E3FC98F80100800700F10A8151
:1034A000B8F81800B8F81A102844A8F818008819B5
:1034B000A8F81A000DB0BDE8F08F00BF5FEACA702F
:1034C0004FF00C0018BF032008E000BFDDF81080AB
:1034D0000695032002E000BF0320069598F84010EF
:1034E00001F0F001084488F84000DDF82090019CCC
:1034F000B9F1000F00F0DE8098F84000069900F066
:10350000F00001F00F01084488F8400000204EF25E
:103510000107C8F8180048468021CFF6FF77C8F8A1
:103520002C901DF081FCC8B148461CF097FE032882
:103530002ED002281ED0012848D1B9F8160041F635
:10354000FF72013001B24846002305F069F8A8F87F
:103550003600B9F81600013831E000BF08F1340038
:1035600041F6FF7639463A4641F6FF73009607F07A
:10357000C5FF79E0B9F91A10484641F6FF720023F9
:1035800005F04EF8A8F83600B9F91A2018E000BF87
:10359000B9F81600B9F81A100023091A01318AB2D5
:1035A00001EBD23109B200EB6105681C01B248465B
:1035B00041F6FF7205F034F8A8F83600681E02B232
:1035C00048463946002305F02BF803E041F6FF702A
:1035D000A8F83670A8F83A0048461CF037FE0328D1
:1035E0001ED002280ED0012838D1B9F9141048464F
:1035F00041F6FF72002304F073FFA8F83400B9F914
:10360000142025E0B9F91810484641F6FF7200234E
:1036100004F066FFA8F83400B9F9182018E000BFDC
:10362000B9F81400B9F818100023091A01318AB248
:1036300001EBD23109B200EB6105681C01B24846CA
:1036400041F6FF7204F04CFFA8F83400681E02B285
:1036500048463946002304F043FF03E041F6FF707B
:10366000A8F83470A8F83800B8F834000921002808
:1036700008BFA8F83470B8F838000022002804BF4A
:1036800041F6FF70A8F83800B8F83600002808BFE7
:10369000A8F83670B8F83A00002804BF41F6FF7069
:1036A000A8F83A00484612F04BFE98F8010080074F
:1036B0007FF5DAAC0DB0BDE8F08F00002DE9F047E2
:1036C00082B0C56A002D00F03C81044690F84000AD
:1036D000000700F0368117F0D3F8824600684021D9
:1036E000477E28461DF0A0FB002804BF0020E061B3
:1036F00028461CF0ABFD804628461CF0AFFD94F830
:103700004010814601F00F01032945D00C2940F0FB
:103710001681E68B0020B9F1000FA08300F07E80B7
:1037200017F0AEF8002E4FF0000C00F0BF800068DC
:1037300048F21F52407E0027C0F16400C5F2EB1230
:1037400010FB06F353FB02F3591101EBD373190479
:10375000374400F0AC8010FB03F151FB02F14E1135
:1037600006EBD17631041F4400F0A18010FB06F176
:1037700051FB02F14B1103EBD1731904374400F0F4
:10378000968010FB03F151FB02F14E1106EBD1764E
:1037900031041F44D4D18AE0A68B0020B8F1000F79
:1037A000E0835FD017F06CF8002E4FF0000C00F0B3
:1037B000A180006848F21F52407E0027C0F16400DB
:1037C000C5F2EB1210FB06F353FB02F3591101EBA8
:1037D000D3731904374400F08E8010FB03F151FBC2
:1037E00002F14E1106EBD17631041F4400F08380C4
:1037F00010FB06F151FB02F14B1103EBD1731904DD
:10380000374478D010FB03F151FB02F14E1106EB67
:10381000D17631041F44D5D16DE000BF30B2C7F17D
:103820006401484348F21F51C5F2EB1150FB01F00F
:10383000410901EBD070E08328461CF0A9FB074644
:1038400028461CF013FDB4F91E1002460C2628462B
:103850003B46009604F08CFD0246E083284600219A
:1038600000236AE030B2C7F16401484348F21F51B7
:10387000C5F2EB1150FB01F0410901EBD070A083C0
:1038800028461CF0EFFB074628461CF06DFCB4F9F7
:103890001C100346032628463A46009604F068FDAD
:1038A0000146A08328460022002346E00027B4F901
:1038B0001A00B4F93610B4F93A2000FA87F3A4F8E4
:1038C0001EC00E1A8B42BCBF374600FA86F34EF27A
:1038D00001019342C8BF171A3BB2CFF6FF712846C9
:1038E00041F6FF7204F09CFE384402B228460021E3
:1038F00022E000BF0027B4F91800B4F93410B4F97D
:10390000382000FA87F3A4F81CC00E1A8B42BCBF03
:10391000374600FA86F34EF201019342C8BF171AE8
:103920003BB2CFF6FF71284641F6FF7204F0D8FD96
:10393000384401B22846002201231EF0EDFFA08B7F
:1039400010B102B0BDE8F087E08B0028F9D1B9F1E1
:10395000000F16D128461CF089FC074628461CF0AB
:1039600017FB002FD8BF01280BDB002F03D4B0F1C9
:10397000FF3F06DC47423AB22846002101231EF0F1
:10398000CBFFB8F1000F16D128461CF06BFB0746A1
:1039900028461CF0E9FB002FD8BF01280BDB002FC5
:1039A00003D4B0F1FF3F06DC474239B2284600227B
:1039B00001231EF0B1FF28460A21524612F0C0FC36
:1039C00060788007BDD494F8400000F0F00084F8DF
:1039D00040000020E06202B0BDE8F087F0B587B09B
:1039E00004460D4620B908F001FE044600286ED0BA
:1039F000204608F043FF002869D094F828004007CB
:103A00003CD40020002D47D00490204608F008FE4A
:103A10000138ADF81400204608F018FF0138ADF861
:103A2000160002A804AA2946FEF72EFB00284ED055
:103A30002068017C890733D482690AB102A99047C2
:103A4000B4F85001A0B304F13005002702AE00BF66
:103A5000304629460022FEF747FBC0BBB4F85001B0
:103A60000137874205F10805F2D31F2821D9DDE986
:103A7000040161630121206322E000BF48F6663142
:103A800014A7C0F604011EA30320D422009700F05F
:103A90004BF907B0F0BD00BFA4F8500107B0F0BD6E
:103AA000DDE90401C4E90C016068012109E000BFFF
:103AB0000020029A039B04EBC0010A634B63411C84
:103AC00060680028A4F8501118BF21F0CFF807B0A3
:103AD000F0BD00BF6465746563746564206D6F64D8
:103AE000696679696E6720646972747920617265AC
:103AF000617320696E2072656E646572000000005B
:103B00005F6C765F696E765F6172656100000000D0
:103B100070B538B345680446002D08BF70BD002657
:103B200009E000BF002AA2600EBF666011444E602B
:103B300019F014FBB5B1D4E9001328466A1855688A
:103B400083420BD0A36812688342EBD0002A1CBFCB
:103B500053185D6055B16A50EAE700BF65601DB15A
:103B60006E50E5E770BD00BF0021A160BDE8704068
:103B700019F0F4BA002814BF406800207047000014
:103B8000F0B14268E2B10168032000BF0A44526804
:103B9000002A04BF023870470A445268002A04BF52
:103BA000013870470A445268002A08BF70470A4427
:103BB00052680430002A04BF03387047E6E700BFAC
:103BC0000020704700680844406870470068085843
:103BD00070470000002814BF806800207047000074
:103BE0000331002221F00301C0E900128260704716
:103BF00010B504460068083019F038F8002808BFEE
:103C000010BD21680022425062684318002A5A60A1
:103C100018BF5050A1686060002908BFA06010BDA7
:103C200070B5044600284FF0000013D00D4689B14E
:103C3000D4E90006083019F019F8AE420CD0E8B10A
:103C400021686A58002A1CBF531858604318425014
:103C500068505D6070BD00BF4FF0000270B1216818
:103C6000425062684318002A5A6018BF5050A16839
:103C70006060002918BF70BDA06070BD002070BDDD
:103C800010B504460068083018F0F0FF002808BF9F
:103C900010BD2168002342185360A268002A4250D8
:103CA0001CBF114448606168A060002908BF6060C3
:103CB00010BD000030B1416809B9806810B1002022
:103CC000704700BF01207047002808BF7047426856
:103CD0008A4213D00268836851F802C08B4219D01F
:103CE00088184068BCF1000F1CBF0CEB0201486053
:103CF000002818BF40F802C0704700BF0268114496
:103D000049680029416007BF002181600020885078
:103D1000704700BF0021BCF1000FC0F808C018BFF9
:103D20000CEB0200416070472DE9F04F83B007466D
:103D30000238C0B203285BD80DA8DDF830800290AD
:103D400008469A460D469146FCF7B0FAF8B1691E4E
:103D50000A1853782F2B22D05C2B20D0012816D0A4
:103D60000B5C2F2B16D05C2B14D002280FD012F82E
:103D7000013C2F2B10D05C2B0ED0032807D012F85B
:103D8000022C2F2A0AD05C2A08D00438E0D14FF048
:103D9000000B06E0013802E0023800E0033800F1D1
:103DA000010B20F015FE044644F6D350C1F2620028
:103DB000A4FB000210A050F8271040F2C447C2F242
:103DC000000792094FF47A703E6802FB1043A61B6D
:103DD0000EA0CDE9006A28F07BFF0299404628F04A
:103DE000B5FF05EB0B0110A04A4628F071FF3C60BF
:103DF00003B0BDE8F08F00BF7D94040888940408E8
:103E000083940408929404088D9404085B25735DE0
:103E1000092825642E253033642C202B256429099C
:103E20002025733A20000000200928696E202573A0
:103E3000206C696E6520232564290A0080680028AB
:103E400014BFC08A002000B27047000080680028BC
:103E50000EBF0020807E80097047000070B50E46BE
:103E600011431BD0154604461AF09EFFA06801239B
:103E7000018A428A314401825119418220463146E9
:103E80002A461DF0C5FB20460B21002212F058FAED
:103E9000012818BF70BD20461DF006FB012070BD33
:103EA000F0B581B01446C8B1622205460E461CF03A
:103EB00009FE98B1016889B1074628463146632258
:103EC0001CF000FE010609D03B463F68A1B2C2B219
:103ED0001846B847C0EA040001B0F0BD2046C0EA69
:103EE000040001B0F0BD00002DE9F04F95B005468B
:103EF000408CDDF878B040F0080068841646BBF8C6
:103F0000082028461F468A462E841CF0DBFDBBF89D
:103F100008200446284651462F841CF0D3FD698CA6
:103F2000814621F008004C45688403D102D115B0C8
:103F3000BDE8F08FBBF80820284651462E841CF0BF
:103F4000C1FD8046284651462F8405F025FB0068B8
:103F5000BBF80810424620F03FFBBBF808000B28D6
:103F600028D147F6FF76B14518BFB04522D1284683
:103F70001CF054FF81B200EBD13000B2441028464F
:103F80001BF0BEFF81B200EBD13000B2B0454FEA6A
:103F9000600005D1611C00F101084145B8BF8846A9
:103FA00047F6FF71894505D1611C00F101094945BA
:103FB000B8BF894640F29030C2F20000FFF718FE09
:103FC000C0B3C0E90389BBF8081004AC0560818068
:103FD000C0F808A00546204606F086FB4BF2995033
:103FE000C0F6020005904BF2CD70C0F602000690BC
:103FF0004BF20970C0F6020007900020CDE90C00DA
:10400000FF200E90BBF80000BBF802100F90484252
:104010001090DBE903019DF852200B9002F0FE00A6
:104020008DF85200204604950A9106F0D5FB15B094
:10403000BDE8F08F48F65D010AA0C0F6040148F61D
:10404000F807CDE9001048F66B21C0F60407C0F66A
:10405000040107A3032040F267120297FFF764FEF2
:10406000FEE700BF747220213D204E554C4C0000ED
:104070005F6C765F6F626A5F7374796C655F6372A1
:10408000656174655F7472616E736974696F6E00E7
:1040900040F29030C2F200001421FFF7A1BD0000F1
:1040A0002DE9F04F81B00446408C10F47C7F00F085
:1040B00035816FEA01086FEA02094FF0000A042710
:1040C0006D464FF0000B0CE04FF0020A608C00BF11
:1040D0000BF1010BC0F305118B4507F1080780F0C8
:1040E0001781E16801EBCB02D2799207F0D4CA5B69
:1040F00002EA0803B3FA83F35B0912EA090218BF64
:1041000001225340E4D151F83B60102130462A4649
:104110001FF00AFF002840F0F980304611212A469E
:104120001FF002FF002840F0F180304612212A469D
:104130001FF0FAFE002840F0E980304613212A469D
:104140001FF0F2FE002840F0E180304615212A469B
:104150001FF0EAFE002840F0D980304614212A469C
:104160001FF0E2FE002840F0D18030460A212A46A6
:104170001FF0DAFE002840F0C98030466B212A4645
:104180001FF0D2FE002840F0C18030466C212A4644
:104190001FF0CAFE002840F0B980304601212A46AF
:1041A0001FF0C2FE002840F0B180304604212A46AC
:1041B0001FF0BAFE002840F0A980304602212A46AE
:1041C0001FF0B2FE002840F0A180304603212A46AD
:1041D0001FF0AAFE002840F09980304605212A46AB
:1041E0001FF0A2FE002840F09180304606212A46AA
:1041F0001FF09AFE002840F08980304632212A467E
:104200001FF092FE002840F0818030466E212A4641
:104210001FF08AFE002879D130466D212A461FF012
:1042200083FE002872D1304669212A461FF07CFEA9
:1042300000287FF449AF30466A212A461FF074FEF9
:1042400000287FF441AF30466E212A461FF06CFEF5
:1042500000287FF439AF30466D212A461FF064FEF6
:1042600000287FF431AF304637212A461FF05CFE2C
:1042700000287FF429AF304638212A461FF054FE2B
:1042800000287FF421AF304635212A461FF04CFE2E
:1042900000287FF419AF304640212A461FF044FE23
:1042A00000287FF411AF304645212A461FF03CFE1E
:1042B00000287FF409AF304641212A461FF034FE22
:1042C00000287FF401AF304642212A461FF02CFE21
:1042D00000287FF4F9AE304643212A461FF024FE21
:1042E00000287FF4F1AE304649212A461FF01CFE1B
:1042F0005FFA8AFABAF1010F4FF0010198BF8A46BE
:1043000000284FF0020018BF8246DFE64FF0030A94
:104310005FFA8AF001B0BDE8F08F00BF4FF0000AED
:104320005FFA8AF001B0BDE8F08F000040F204208F
:10433000C2F20000006870477047000040F204219C
:10434000C2F2000108607047C0F30410072828BFBC
:10435000072070474FF6FF71884204BF1F20704747
:1043600010B90020704700BF702805D84FF60E2105
:10437000C0F60201085C704740F2EC21C2F2000175
:1043800009680029EDD040F2C842C2F2000271383B
:10439000126880B2824284BF085C7047E1E7000087
:1043A00080B540F2F020C2F200001821FFF718FC9F
:1043B00040F25030C2F200000121417080BD000087
:1043C0002DE9F04140F23008C2F200081446D8F856
:1043D00004200F4619461D4606469047386048B1EE
:1043E0002868D8F804203044002190472060BDE8B8
:1043F000F08100BF00202060BDE8F0812DE9F04F82
:104400008DB0169C8046002C1F461CBF00202080CB
:10441000B8F1000F38D000294FF0000000F06282A0
:104420000D4698F80010002900F05C82179810F0F3
:10443000060F2DD00020012242F2014302E000BF0E
:10444000397904300D2904D802FA01F71F4240F0EF
:10445000108108EB000779780D2904D802FA01F6DB
:104460001E4240F00381B9780D2904D802FA01F602
:104470001E4240F0FD80F9780D29E1D802FA01F6DC
:104480001E42DDD00330F4E000200DB0BDE8F08F17
:104490000021012F0A91C0F21582C0074FF00009D8
:1044A0000895099240F0F2800024CDF8008000BF0A
:1044B00040F23000C2F2000008EB04054268002020
:1044C0000C9028460CA99047064618F804000C9951
:1044D00000280B91079700F083800998049410FA44
:1044E00087F005904FF0000A4FF0FF3000270024BE
:1044F0004FF0000BCDF818900DE000BF421C08BF34
:104500008A46DDE90B1B01370C9115F80B104E465E
:10451000002900F05B8040F23001C2F200014A68DD
:10452000804628460BA990478146089831464A465E
:1045300013F058F801B2044409980029C8BF044494
:10454000059821B288425846A8BF4FF0FF3018F1B5
:10455000010218BF40460A2E00F032800D2E00F0F6
:104560002F80A6F59C4245F2A6139A42C0F02880FF
:10457000A6F120023F2AC1D8DFE802F02220202045
:104580002020202020202020222222202020202025
:104590002020202020202222202020202020202017
:1045A000202020202020202020202020202020200B
:1045B0002020202020202020202020229EE700BF35
:1045C000BBF1000F08BF10F101020DD0411C06998C
:1045D0001CD0049CDDF800808946FCB186E100BF58
:1045E0004FF0000A19E000BF8A4606990020DDF866
:1045F000008087B10D2E33D1049CB9F10A0F894692
:1046000008BF0C98D14468B950E100BF5846DDF8A6
:104610000080002FEED1049C89460C980028D144DC
:1046200000F0448198F8001004440A290A9400F02C
:104630003D810D2900F03A8118F804000A2800F0A5
:1046400033810D2800F03081002800F02F81079879
:10465000A0EB0A0007B2002F3FF72AAF26E100BF08
:10466000049C89460028D144DCD11FE1013000E0E0
:104670000230002918BF0130002C00F033814FF6C2
:10468000FF7121800DB0BDE8F08F00BF4FF0000B2F
:10469000002400BF40F23000C2F2000008EB040624
:1046A000426800200C9030460CA9904718F804107E
:1046B0000C9A00290B9200F0B3800999079711FA20
:1046C00087F1019100224FF0FF31002500274FF0C4
:1046D000000ACDF81890049440F23004C2F20004AD
:1046E000039205910BE000BF4FF0010BDDE90B1ABF
:1046F000013516F80A200C91002A00F087806268C4
:10470000814630460BA99047B9F1230F5FFA8BF130
:1047100006D10029E8D002290ED14FF0000BE5E7C1
:10472000012907D14FF0010BB9F1200F08BF4FF05D
:10473000020BDBE7029006E04FF02309012902900B
:1047400008BF4FF0000B0898029A494612F04AFF42
:1047500001B2074409980029C8BF074401983AB23A
:1047600051469042A8BF4FF0FF31059B581C18BF1F
:104770001946B9F10A0F00F05580B9F10D0F00F09C
:104780005180A9F59C4045F2A6139842C0F04A809A
:10479000A9F120003F2800F22380DFE800F0432148
:1047A0002121212121212121212143434321212193
:1047B00021212121212121214343212121212121A5
:1047C00021212121212121212121212121212121D9
:1047D000212121212121212121212121214300BF2A
:1047E000DDF830A0481C16F80A00039B08BF1346EA
:1047F00000280B981A460C90029805F101057FF4E9
:104800006BAF81460B46591C05D116E0039A059BF8
:104810008146591C11D0049CDDE9069724B365E05C
:10482000002220E00298BAF1000F08BF11F1010345
:1048300012D0039A0B46591CEDD15346079F7DB108
:10484000B9F10D0F28D1049CDDF818900A2808BF93
:104850000C9B914453B929E00023079F002DEFD111
:10486000049CDDF818900C9B9144FBB198F8000073
:104870001C440A280A9419D00D2817D018F80400EF
:104880000A2811D00D280FD080B1B81A07B2012F15
:10489000BFF600AF0AE000BF049CDDF81890002BC3
:1048A0009144E3D102E000BF01340A94002C169C2D
:1048B000089DCDF8189005D0002C069818BF2080D0
:1048C0000FE000BF40F23000C2F2000042680AA9C7
:1048D000404690472CB101462846002212F082FE45
:1048E00020800A980DB0BDE8F08F00BF169CE3E76A
:1048F0000278232908D1032A12D2D100C9B2012398
:10490000CB4082F0010106E0012A09D120294FF0B5
:10491000010101D10223037001F00100704700BFC3
:10492000002101F0010070472DE9F04F81B0FAB18C
:10493000DDF828909B4614460F4680464FF0010A4A
:1049400006E000BF2AEA0400341A05EB0B077CB12D
:10495000660806FB0B7540462946C8470128F1DA70
:10496000B0F1FF3F3446F2DD284601B0BDE8F08FDC
:104970000025284601B0BDE8F08F00002DE9F04F7A
:1049800083B00DF1400C0DF1300E1E469CE88011F5
:104990009EE808488A4681465FEA8C7401920FD4EB
:1049A000B8F1000F38D05FEACC7037D01CF00C00A3
:1049B00018BF012040EA0E00A8EB00082EE000BF5F
:1049C00015465FEACC604DD50F985FEA4C5110D484
:1049D000BBF1000F0DD0BB4518BFC34509D1BBF1DA
:1049E00001010A4618BFABF10202102818BF0A469F
:1049F0009346102808D15FEA8C604DD4BBF1200F9C
:104A00004AD278204EE000BF02284FD1BBF11F0FE1
:104A10004CD8622046E000BF4FF00008202F4FF036
:104A2000200538BF3D465D454FF020070CD903EB0C
:104A30000B00A5EB0B013022F346FBF725FCDDF85C
:104A400048C00C9BDE46AB46B8F1200F38BF474646
:104A5000019D5FEACC7018BF5F4507D8109F5FEAE1
:104A6000CC60B1D4BBF11F0F2BD93CE003EB0B00A2
:104A7000A7EB0B013022E346CDF80880F046FBF7A8
:104A800003FCC646DDF808800C9BDC46BB46109F45
:104A90005FEACC60E6D597E7002807D5BBF1200F89
:104AA00004D2582003F80B000BF1010BBBF11F0FD0
:104AB00019D8302003F80B000BF1010BBBF11F0FCD
:104AC00011D8BEF1000F01D02D2008E05FEA4C7034
:104AD00004D45FEA0C7006D5202000E02B2003F8F8
:104AE0000B000BF1010B0094002C2C460ED1D84585
:104AF0002C460BD9A8EB0B072A4600BF20205146B5
:104B00003346541CC847013F2246F7D1BBF1000F82
:104B1000CDF8088014D00C98A0F1010818F80B000B
:104B2000514622463346ABF10105671CC847002DAC
:104B30003C46AB46F2D10098002805D41AE000BFED
:104B400027460098002815D50199DDF80880781AC5
:104B500040450FD24D4200BF202051463A463346D1
:104B60007C1CC847281940452746F5D3204603B08A
:104B7000BDE8F08F3C46204603B0BDE8F08F000052
:104B80009A4238BF88547047704700002DE9F04FB3
:104B900099B08A46229944F689361D461746C0F6D2
:104BA00000064FF000081091BAF1000F18BF06463A
:104BB000CDF838A0CDE90C6205F1020B4246287809
:104BC000002800F00B8500BF25280DD051463B463C
:104BD000541CB04701350BF1010B22462878002800
:104BE000F2D100F0FBBC00BF4FF000081BF8010C35
:104BF000A0F12003102B00F285800121DFE803F0F3
:104C00000A82820E828282828282820C8210828258
:104C1000120000BF082105E0042103E0102101E09B
:104C2000022100BF9BF8000048EA0108A0F1200320
:104C3000102B00F2B5800121DFE813F01200B20062
:104C4000B2001600B200B200B200B200B200B20070
:104C5000B2001400B2001800B200B2001A0000BF87
:104C6000082105E0042103E0102101E0022100BF3A
:104C70009BF8010048EA0108A0F12003102B00F284
:104C8000CF800121DFE813F01200CC00CC00160029
:104C9000CC00CC00CC00CC00CC00CC00CC0014006C
:104CA000CC001800CC00CC001A0000BF082105E0A1
:104CB000042103E0102101E0022100BF9BF8020063
:104CC00048EA0108A0F12003102B00F2B380012173
:104CD000DFE803F010B0B012B0B0B0B0B0B0B014B4
:104CE000B016B0B00A0000BF48EA01080BF1040B8F
:104CF0007CE700BF0821F7E71021F5E70421F3E77F
:104D00000221F1E7ABF10201ABF1010BA0F130039D
:104D1000DBB2092B4BD80BF1020B4FF0000900BF9F
:104D200009EB8901490051FA80F11BF8010CA1F14E
:104D30003009A0F13003DBB2092B00F21B8109EB33
:104D4000890100EB41019BF80000A1F13009A0F1BD
:104D50003003DBB2092B00F20F8109EB890100EB74
:104D600041019BF80100A1F13009A0F13003DBB251
:104D7000092B00F25F8109EB890100EB41019BF8EF
:104D80000200A1F13009A0F13001C9B20A290BF1EA
:104D9000040BC5D3ABF1020B2E2800F0F08022E00B
:104DA000ABF10101A0F13003DBB2092BB3D92A2802
:104DB00014D1109B53F8040B109381460223002852
:104DC00048BFC0F1000903EA907311F8020F48EAE6
:104DD00003088B462E2800F0D28004E04FF0000933
:104DE0002E2800F0CC800023A0F168014FEA710763
:104DF000092F0B933DD801214FF48073DFE807F0B2
:104E000006262A3939393439393400BF594611F860
:104E1000010F682840F014810221C02324E000BF64
:104E200059460BF1010BA0F13003DBB2092BBED8C0
:104E300071E700BF0BF101010BF1020BA0F1300390
:104E4000DBB2092B7FF667AFB1E700BF4FF4007309
:104E50000AE000BF594611F8010F6C2840F0F480B9
:104E600002214FF4407300BF1BF8010048EA030819
:104E70008B44A0F12506532E00F2EA8108216F230E
:104E80004FF0100ADFE816F01601E401E401E40136
:104E9000E401E401E401E401E401E401E401E401EA
:104EA000E401E401E401E401E401E401E401E401DA
:104EB000E401E401E401E401E401E401E401E401CA
:104EC000E401E401E401E401E401E401E401E401BA
:104ED000E401E401E401E401E401E401E4015A0035
:104EE000E401E401E401E401E401E401E401660019
:104EF000E401E401E401E401E401E401E401E4018A
:104F0000E4011A01DE015400E401E401E401E401DA
:104F10005400E401E401E401E401E4011C015A004D
:104F2000E401E401E400E4015400E401E40166006A
:104F300028F010084FF00A0A0CE000BF5F4617F88F
:104F4000011F48F4887856294FF0100102D15623EA
:104F5000BB46B5E040F00801582908BF48F02008DA
:104F6000642800F0B18069280346514600F0AC8007
:104F7000A6E000BFABF1010B2E287FF434AF5946F9
:104F800011F8010F48F48068A0F13003DBB2092B5F
:104F900040D80BF1020B002303EB8301490051FAC7
:104FA00080F19BF80000A0F13003DBB2092BA1F1E6
:104FB00030033FF619AF03EB830100EB41019BF88F
:104FC0000100A0F13003DBB2092BA1F1300300F2A4
:104FD000498103EB830100EB41019BF80200A0F142
:104FE0003003DBB2092BA1F1300300F23F8103EB68
:104FF000830100EB41019BF80300A1F13003A0F114
:105000003001C9B20A290BF1040BC5D3ABF1010B76
:10501000EAE600BF2A2809D1109850F8041B109026
:105020001BF8020F21EAE173DEE600BF00238B4686
:10503000DAE600BF0BF1010B2E28A0D0D3E600BFAB
:1050400048F080088B4614E748F480788B4610E7D8
:10505000109850F804EB10909EF80000714600285C
:1050600000F057820B9E0024002E08BF4FF0FF3641
:10507000A6F1030CB31E771E351F0EEB04067178E4
:10508000002918BFA74200F0BF81B178002918BFDE
:10509000A34200F03B82F178002918BFA44500F03C
:1050A00037823179261D11B1A5423446E5D10EEB88
:1050B00006012EE202F101082520CBE00221622345
:1050C00028F00C0818468A465FEA485148BF28F085
:1050D000010856282ED0692801D0642844D15FEAFF
:1050E000885011D45FEAC85000F182805FEA4860BE
:1050F00000F1EC801098D0F800C05FEA086048BF6B
:105100000FFA8CFCE5E000BF10980A92073020F0FF
:1051100007000146426851F8080B109150EA02015D
:1051200008BF28F01008099281BB18F480612DD0C7
:105130000022A0E010990D9F51F8040BDDF838A073
:10514000109141680C9E0D68BC1A119503680AEB1A
:1051500002013046904622460095FFF717FD804435
:105160000BF1010528E500BF5FEA885052D45FEAE1
:10517000C85000F119815FEA486000F1658110981C
:1051800006685FEA086048BFB6B25FE180EAE27095
:10519000B0EBE27408F0200082EAE27180F0610076
:1051A00061EBE275F63000220F9000BF5746924641
:1051B000204629463A460023FBF702F800FB174237
:1051C0000F9E02F0FE0316440A2B38BF42F0300651
:1051D0000AF10102BAF11E0F11AB03F80A6049D8B7
:1051E000E31B75F1000304460D46BA46DED242E0E9
:1051F000109850F804CBBCF1000F109008BF28F4B1
:105200000478BCF1000F3DD118F480603AD000233F
:1052100092E000BF10980A92073020F0070045681E
:1052200050F8084B109054EA050008BF28F0100809
:10523000002840F0878018F4806000F0838000220E
:10524000A5E000BF5FEA887440F1BC80012540E121
:1052500002F10108DDF838A00D9F0C9E51463B4637
:10526000B047B6E10BF1010BBEE500BF0BF1020B3D
:10527000BAE500BFBA46099811A9C00FCDE90012DE
:1052800089E000BF08F0200181F06101604601F172
:10529000F60E0023BCF1000F48BFCCF1000000BFA8
:1052A000B0FBFAF101FB1A0404F0FE050EEB040654
:1052B0000A2D38BF44F0300611ACE6541E2B03F122
:1052C000010339D882450846EAD935E0109890F8AC
:1052D00000C0BCF1000F08BF28F44478BCF1000FF7
:1052E00004D118F4806001D0002322E008F02001EE
:1052F00081F06101604601F1F60E0023BCF1000F60
:1053000048BFCCF1000000BFB0FBFAF101FB1A046A
:1053100004F0FE050EEB04060A2D38BF44F03006FB
:1053200011ACE6541E2B03F1010302D88245084656
:10533000EAD91098043010904FEADC7011A9CDE939
:105340000013B0E008F0200080F06100F630002289
:105350000F9000BF16462046294652460023FAF712
:105360002FFF00FB1A420F9F02F0FE0317440A2B87
:1053700038BF42F03007721C1E2E11AB9F5506D865
:10538000B4EB0A0375F1000304460D46E2D211A8FE
:10539000CDE900020020CDE9020A0B980C9EDDF851
:1053A00038A00A9A85E000BF109850F8046B002ED0
:1053B000109008BF28F4047846BB18F4806025D00C
:1053C00000216CE0B9F1020FC0F082800DF13008CD
:1053D00098E8A00109F10100C9F1000A00260F9424
:1053E0000B9000BF93192020414614461A463B46B5
:1053F000A84701360AEB060022460130F2D13244BA
:105400002E460F9C0B9D66E0711C82E008F0200088
:1054100080F0610000F1F603002100BFB6FBFAF056
:1054200000FB1A6707F0FE05DC190A2D38BF47F0AC
:10543000300411AF7C541E2901F101012FD8B2456F
:105440000646EBD92BE000BF10980678002E08BF67
:1054500028F4447826B918F4806001D000211BE0BC
:1054600008F0200080F0610000F1F603002100BF89
:10547000B6FBFAF000FB1A6707F0FE05DC190A2DEF
:1054800038BF47F0300411AF7C541E2901F10101EF
:1054900002D8B2450646EBD910980430109011A8F6
:1054A000CDE900010020CDE9020A0B980C9EDDF841
:1054B00038A0CDE90409304651460D9FCDF818803B
:1054C0003B46FFF75BFA80460BF10105FFF774BB23
:1054D0000225DDE90C671099DDF838A011F8040BFE
:1054E0003B461091514602F10108B047002C70D59F
:1054F000A9456ED9A9EB05044246202051463B46FA
:1055000008F10108B047013CF6D162E0B11C00E0AF
:10551000F11C0B9DA1EB0E03AB42294638BF194687
:105520005FEA48570F9758BF19465FEA88730A9396
:1055300023D4894520D9DDF83880DDE90CA509F1AF
:105540000100A9EB01060024CDF820E0099000BF7E
:1055500013192020414617461A462B46D0470134DE
:105560003A46A642F4D1DDF820E02F469EF800002E
:105570000B9D2244564603E00131DDE90C67099199
:10558000DDF838A090B10EF1010409E0C0B2514637
:105590003B4602F10108B04714F8010B424630B116
:1055A0000F990029F2D50DB1013DEFE790460A9819
:1055B00000280ED5099881450BD9A9EB000400BF3E
:1055C0004246202051463B4608F10108B047013CC5
:1055D000F6D10BF10105FFF7EFBA00BF1346974272
:1055E00098BF7B1E0020514614461A463B46B047E2
:1055F000204619B0BDE8F08F2DE9F04F81B040F2A0
:10560000BC27C2F20007B8681FF0DCF979780446BD
:1056100081F00100787040F22030C2F20000FEF705
:10562000A9FA002800F0B28040F2203B06464FF075
:105630000008C2F2000B4FF001094FF6FF7A06E0B6
:105640005846FEF797FA0646002800F09F8096F825
:1056500042007978C0F380028A4287F8008063D0E4
:1056600000F0FB0242EA8102316B030786F8422018
:105670001AD4002918DC0A1916D4C00709D1716997
:1056800039B130468847316AB26A01441044316208
:10569000B062B16809B13046884796F84200316B74
:1056A00040F0080086F84200081930633CD4F16AE3
:1056B0008842C8BF3163F16930468847726A9042B8
:1056C00005D07268014670620AB130689047D6E929
:1056D0000B01814228DB96F84210B6F840308A0769
:1056E00005D423B153451CBF013BA6F840301B0431
:1056F00008D0D6E90E356D423563ABB1002A05D529
:1057000007E000BF002A1DD4B36BDBB1726B5242BD
:10571000326381F0020186F84210B16A326A316266
:10572000C6E90A23B06300BF387801283FF488AF88
:1057300058463146FEF746FA064600287FF487AF02
:1057400024E000BF58463146FEF7BEFA584687F8B7
:105750000090FEF70FFA0146786889B11FF086FACB
:10576000F16809B130468847316909B13046884748
:10577000304617F0F3FC387801283FF461AFD7E7E3
:105780001FF05EFAF1680029ECD1EDE71FF020F977
:10579000B86001B0BDE8F08FB0B5044640680D4672
:1057A00010B12946FFF7F8FF2268002A08BFB0BDF4
:1057B00020462946BDE8B0401047000089B205F0F8
:1057C00037BD000089B205F0C9BD000070B582B0D8
:1057D00000293FD080290B460BD3B1FA81F2C2F1E8
:1057E0001A024FF0FF3303FA02F2D2438B187F2BD9
:1057F0005CD89A08002300F1140C5CF823E04FF009
:10580000FF3404FA02F212EA0E0227D092FAA2F250
:10581000B2FA82F400EBC31202EB840555F8382F7C
:10582000002A3FD0566826F003068E424ED249F633
:10583000F43549F66A314DA6C0F60405C0F60401F8
:1058400051A3032040F20632CDE90056FEF76CFA70
:10585000FEE700BF0022104602B070BD02696FF083
:10586000010606FA03F31A401CD092FAA2F2B2FA29
:1058700082F35CF823E0BEF1000F7246C6D149F610
:10588000F43549F66A3145A6C0F60405C0F60401B0
:1058900051A303204FF41072CDE90056FEF744FAED
:1058A000FEE700BF0022104602B070BD0022B2EB3E
:1058B000D33FD0D1B3FA83F6C6F11A0223FA02F22B
:1058C00082F02002C6F1190395E700BFD668CEB179
:1058D000916889B3CE60B1602E689642BBD1814297
:1058E0002960B8D1012101FA04F43EEA04064CF81B
:1058F0002360B0D10669994026EA01010161104692
:1059000002B070BD49F6790649F6F43549F66A31B8
:1059100049F6AB33C0F60406C0F60405C0F6040130
:10592000C0F60403032040F24D22CDE90056FEF7F5
:10593000FBF900BFFEE700BF49F64F0649F6F43514
:1059400049F66A3149F6AB33C0F60406C0F60405E1
:10595000C0F60401C0F60403032040F24E22CDE954
:105960000056FEF7E1F900BFFEE700BF626C6F630F
:105970006B5F73697A6528626C6F636B29203E3DAB
:105980002073697A65000000626C6F636B5F6C6FF7
:10599000636174655F66726565000000736C5F6DBE
:1059A00061702026262022696E7465726E616C20FB
:1059B0006572726F72202D207365636F6E64206C48
:1059C0006576656C206269746D6170206973206E04
:1059D000756C6C22000000007365617263685F7310
:1059E00075697461626C655F626C6F636B00000067
:1059F000416803290CD921F00301021D11444A68B2
:105A000022F002024A60416821F0010141607047C2
:105A100080B582B049F6473C49F6F43E49F66A3112
:105A200049F61B43C0F6040CC0F6040EC0F6040190
:105A3000C0F60403032040F2C912CDE900ECFEF7E2
:105A400073F902B0BDE88040FEE7000070B582B097
:105A50004A68032A0AD922F003020D1D54191FD0E7
:105A60002279D20730D1084602B070BD49F64736D8
:105A700049F6F43549F66A3149F61B43C0F6040687
:105A8000C0F60405C0F60401C0F60403032040F28A
:105A9000C912CDE90056FEF747F900BFFEE700BF87
:105AA00049F6F43549F66A312CA6C0F60405C0F66D
:105AB000040135A3032040F2BE22CDE90056FEF7D3
:105AC00033F900BFFEE700BF0E46214600F09AF909
:105AD000706803280ED96268314622F00302104430
